{
  "contractName": "MedicalData",
  "abi": [
    {
      "anonymous": false,
      "inputs": [
        {
          "indexed": true,
          "internalType": "uint256",
          "name": "index",
          "type": "uint256"
        },
        {
          "indexed": true,
          "internalType": "address",
          "name": "owner",
          "type": "address"
        },
        {
          "indexed": false,
          "internalType": "bool",
          "name": "consent",
          "type": "bool"
        }
      ],
      "name": "ConsentUpdated",
      "type": "event"
    },
    {
      "anonymous": false,
      "inputs": [
        {
          "indexed": true,
          "internalType": "uint256",
          "name": "index",
          "type": "uint256"
        },
        {
          "indexed": true,
          "internalType": "address",
          "name": "owner",
          "type": "address"
        },
        {
          "indexed": false,
          "internalType": "string",
          "name": "content",
          "type": "string"
        }
      ],
      "name": "DataUploaded",
      "type": "event"
    },
    {
      "inputs": [
        {
          "internalType": "uint256",
          "name": "",
          "type": "uint256"
        }
      ],
      "name": "dataRecords",
      "outputs": [
        {
          "internalType": "address",
          "name": "owner",
          "type": "address"
        },
        {
          "internalType": "string",
          "name": "content",
          "type": "string"
        },
        {
          "internalType": "bool",
          "name": "consent",
          "type": "bool"
        }
      ],
      "stateMutability": "view",
      "type": "function",
      "constant": true
    },
    {
      "inputs": [
        {
          "internalType": "string",
          "name": "content",
          "type": "string"
        }
      ],
      "name": "uploadData",
      "outputs": [],
      "stateMutability": "nonpayable",
      "type": "function"
    },
    {
      "inputs": [
        {
          "internalType": "uint256",
          "name": "index",
          "type": "uint256"
        },
        {
          "internalType": "bool",
          "name": "consent",
          "type": "bool"
        }
      ],
      "name": "updateConsent",
      "outputs": [],
      "stateMutability": "nonpayable",
      "type": "function"
    },
    {
      "inputs": [
        {
          "internalType": "uint256",
          "name": "index",
          "type": "uint256"
        }
      ],
      "name": "getData",
      "outputs": [
        {
          "internalType": "address",
          "name": "",
          "type": "address"
        },
        {
          "internalType": "string",
          "name": "",
          "type": "string"
        },
        {
          "internalType": "bool",
          "name": "",
          "type": "bool"
        }
      ],
      "stateMutability": "view",
      "type": "function",
      "constant": true
    },
    {
      "inputs": [],
      "name": "getDataCount",
      "outputs": [
        {
          "internalType": "uint256",
          "name": "",
          "type": "uint256"
        }
      ],
      "stateMutability": "view",
      "type": "function",
      "constant": true
    }
  ],
  "bytecode": "0x608060405234801561001057600080fd5b50610cf7806100206000396000f3fe608060405234801561001057600080fd5b50600436106100575760003560e01c80630178fe3f1461005c57806350969f441461008e578063687bfa8f146100aa5780637355a424146100c6578063c8592e0b146100e4575b600080fd5b61007660048036038101906100719190610867565b610116565b604051610085939291906109b2565b60405180910390f35b6100a860048036038101906100a39190610826565b6102d8565b005b6100c460048036038101906100bf9190610890565b610420565b005b6100ce6105f6565b6040516100db9190610a6d565b60405180910390f35b6100fe60048036038101906100f99190610867565b610602565b60405161010d939291906109b2565b60405180910390f35b60006060600080805490508410610162576040517f08c379a000000000000000000000000000000000000000000000000000000000815260040161015990610a2d565b60405180910390fd5b600080858154811061019d577f4e487b7100000000000000000000000000000000000000000000000000000000600052603260045260246000fd5b90600052602060002090600302016040518060600160405290816000820160009054906101000a900473ffffffffffffffffffffffffffffffffffffffff1673ffffffffffffffffffffffffffffffffffffffff1673ffffffffffffffffffffffffffffffffffffffff16815260200160018201805461021c90610bc3565b80601f016020809104026020016040519081016040528092919081815260200182805461024890610bc3565b80156102955780601f1061026a57610100808354040283529160200191610295565b820191906000526020600020905b81548152906001019060200180831161027857829003601f168201915b505050505081526020016002820160009054906101000a900460ff1615151515815250509050806000015181602001518260400151935093509350509193909250565b600060405180606001604052803373ffffffffffffffffffffffffffffffffffffffff16815260200183815260200160001515815250908060018154018082558091505060019003906000526020600020906003020160009091909190915060008201518160000160006101000a81548173ffffffffffffffffffffffffffffffffffffffff021916908373ffffffffffffffffffffffffffffffffffffffff160217905550602082015181600101908051906020019061039a9291906106f1565b5060408201518160020160006101000a81548160ff02191690831515021790555050503373ffffffffffffffffffffffffffffffffffffffff1660016000805490506103e69190610b05565b7fbef59edb9c801e3fba0031de7e59e164866aa3faec2369c4f3bd1cba6fb48685836040516104159190610a0b565b60405180910390a350565b6000805490508210610467576040517f08c379a000000000000000000000000000000000000000000000000000000000815260040161045e90610a2d565b60405180910390fd5b3373ffffffffffffffffffffffffffffffffffffffff16600083815481106104b8577f4e487b7100000000000000000000000000000000000000000000000000000000600052603260045260246000fd5b906000526020600020906003020160000160009054906101000a900473ffffffffffffffffffffffffffffffffffffffff1673ffffffffffffffffffffffffffffffffffffffff1614610540576040517f08c379a000000000000000000000000000000000000000000000000000000000815260040161053790610a4d565b60405180910390fd5b806000838154811061057b577f4e487b7100000000000000000000000000000000000000000000000000000000600052603260045260246000fd5b906000526020600020906003020160020160006101000a81548160ff0219169083151502179055503373ffffffffffffffffffffffffffffffffffffffff16827ff4a3b55b6d47189918d1f49e87d7ce273ae1971fcd369627bd959c6653ecdc2f836040516105ea91906109f0565b60405180910390a35050565b60008080549050905090565b6000818154811061061257600080fd5b90600052602060002090600302016000915090508060000160009054906101000a900473ffffffffffffffffffffffffffffffffffffffff169080600101805461065b90610bc3565b80601f016020809104026020016040519081016040528092919081815260200182805461068790610bc3565b80156106d45780601f106106a9576101008083540402835291602001916106d4565b820191906000526020600020905b8154815290600101906020018083116106b757829003601f168201915b5050505050908060020160009054906101000a900460ff16905083565b8280546106fd90610bc3565b90600052602060002090601f01602090048101928261071f5760008555610766565b82601f1061073857805160ff1916838001178555610766565b82800160010185558215610766579182015b8281111561076557825182559160200191906001019061074a565b5b5090506107739190610777565b5090565b5b80821115610790576000816000905550600101610778565b5090565b60006107a76107a284610ab9565b610a88565b9050828152602081018484840111156107bf57600080fd5b6107ca848285610b81565b509392505050565b6000813590506107e181610c93565b92915050565b600082601f8301126107f857600080fd5b8135610808848260208601610794565b91505092915050565b60008135905061082081610caa565b92915050565b60006020828403121561083857600080fd5b600082013567ffffffffffffffff81111561085257600080fd5b61085e848285016107e7565b91505092915050565b60006020828403121561087957600080fd5b600061088784828501610811565b91505092915050565b600080604083850312156108a357600080fd5b60006108b185828601610811565b92505060206108c2858286016107d2565b9150509250929050565b6108d581610b39565b82525050565b6108e481610b4b565b82525050565b60006108f582610ae9565b6108ff8185610af4565b935061090f818560208601610b90565b61091881610c82565b840191505092915050565b6000610930600d83610af4565b91507f496e76616c696420696e646578000000000000000000000000000000000000006000830152602082019050919050565b6000610970601983610af4565b91507f4e6f7420746865206f776e6572206f66207468652064617461000000000000006000830152602082019050919050565b6109ac81610b77565b82525050565b60006060820190506109c760008301866108cc565b81810360208301526109d981856108ea565b90506109e860408301846108db565b949350505050565b6000602082019050610a0560008301846108db565b92915050565b60006020820190508181036000830152610a2581846108ea565b905092915050565b60006020820190508181036000830152610a4681610923565b9050919050565b60006020820190508181036000830152610a6681610963565b9050919050565b6000602082019050610a8260008301846109a3565b92915050565b6000604051905081810181811067ffffffffffffffff82111715610aaf57610aae610c53565b5b8060405250919050565b600067ffffffffffffffff821115610ad457610ad3610c53565b5b601f19601f8301169050602081019050919050565b600081519050919050565b600082825260208201905092915050565b6000610b1082610b77565b9150610b1b83610b77565b925082821015610b2e57610b2d610bf5565b5b828203905092915050565b6000610b4482610b57565b9050919050565b60008115159050919050565b600073ffffffffffffffffffffffffffffffffffffffff82169050919050565b6000819050919050565b82818337600083830152505050565b60005b83811015610bae578082015181840152602081019050610b93565b83811115610bbd576000848401525b50505050565b60006002820490506001821680610bdb57607f821691505b60208210811415610bef57610bee610c24565b5b50919050565b7f4e487b7100000000000000000000000000000000000000000000000000000000600052601160045260246000fd5b7f4e487b7100000000000000000000000000000000000000000000000000000000600052602260045260246000fd5b7f4e487b7100000000000000000000000000000000000000000000000000000000600052604160045260246000fd5b6000601f19601f8301169050919050565b610c9c81610b4b565b8114610ca757600080fd5b50565b610cb381610b77565b8114610cbe57600080fd5b5056fea2646970667358221220eec94abea93665a4facb8f0d954553556e45a1975c990e74125f92e53b03e87c64736f6c63430008000033",
  "immutableReferences": {},
  "source": "// SPDX-License-Identifier: MIT\npragma solidity ^0.8.0;\n\ncontract MedicalData {\n    // Structure to hold medical data\n    struct Data {\n        address owner;\n        string content;\n        bool consent;\n    }\n\n    // Array to store all medical data records\n    Data[] public dataRecords;\n\n    // Event to be emitted when data is uploaded\n    event DataUploaded(uint indexed index, address indexed owner, string content);\n\n    // Event to be emitted when consent is updated\n    event ConsentUpdated(uint indexed index, address indexed owner, bool consent);\n\n    // Function to upload medical data\n    function uploadData(string memory content) public {\n        dataRecords.push(Data(msg.sender, content, false));\n        emit DataUploaded(dataRecords.length - 1, msg.sender, content);\n    }\n\n    // Function to update consent for a specific data record\n    function updateConsent(uint index, bool consent) public {\n        require(index < dataRecords.length, \"Invalid index\");\n        require(dataRecords[index].owner == msg.sender, \"Not the owner of the data\");\n        dataRecords[index].consent = consent;\n        emit ConsentUpdated(index, msg.sender, consent);\n    }\n\n    // Function to retrieve a specific data record\n    function getData(uint index) public view returns (address, string memory, bool) {\n        require(index < dataRecords.length, \"Invalid index\");\n        Data memory record = dataRecords[index];\n        return (record.owner, record.content, record.consent);\n    }\n\n    // Function to get the total number of data records\n    function getDataCount() public view returns (uint) {\n        return dataRecords.length;\n    }\n}\n",
  "sourcePath": "/Users/mohdjaved/Desktop/MedicalDataBlockchain/contracts/MedicalData.sol",
  "compiler": {
    "name": "solc",
    "version": "0.8.0+commit.c7dfd78e.Emscripten.clang"
  },
  "schemaVersion": "3.4.16",
  "updatedAt": "2024-08-06T18:13:02.890Z",
  "networkType": "ethereum",
  "devdoc": {
    "kind": "dev",
    "methods": {},
    "version": 1
  },
  "userdoc": {
    "kind": "user",
    "methods": {},
    "version": 1
  }
}